{
  "_format": "hh-sol-artifact-1",
  "contractName": "P2PTransferProject",
  "sourceName": "contracts/main.sol",
  "abi": [
    {
      "inputs": [
        {
          "internalType": "string",
          "name": "_name",
          "type": "string"
        }
      ],
      "stateMutability": "nonpayable",
      "type": "constructor"
    },
    {
      "inputs": [],
      "name": "getBalance",
      "outputs": [
        {
          "internalType": "uint256",
          "name": "",
          "type": "uint256"
        }
      ],
      "stateMutability": "view",
      "type": "function"
    },
    {
      "inputs": [],
      "name": "getName",
      "outputs": [
        {
          "internalType": "string",
          "name": "",
          "type": "string"
        }
      ],
      "stateMutability": "view",
      "type": "function"
    },
    {
      "inputs": [],
      "name": "getOwner",
      "outputs": [
        {
          "internalType": "address",
          "name": "",
          "type": "address"
        }
      ],
      "stateMutability": "view",
      "type": "function"
    },
    {
      "inputs": [],
      "name": "name",
      "outputs": [
        {
          "internalType": "string",
          "name": "",
          "type": "string"
        }
      ],
      "stateMutability": "view",
      "type": "function"
    },
    {
      "inputs": [],
      "name": "owner",
      "outputs": [
        {
          "internalType": "address",
          "name": "",
          "type": "address"
        }
      ],
      "stateMutability": "view",
      "type": "function"
    },
    {
      "inputs": [
        {
          "internalType": "string",
          "name": "_name",
          "type": "string"
        }
      ],
      "name": "setName",
      "outputs": [],
      "stateMutability": "nonpayable",
      "type": "function"
    }
  ],
  "bytecode": "0x608060405234801561001057600080fd5b50604051610ecb380380610ecb833981810160405281019061003291906101fd565b336000806101000a81548173ffffffffffffffffffffffffffffffffffffffff021916908373ffffffffffffffffffffffffffffffffffffffff16021790555080600190816100819190610467565b5050610539565b6000604051905090565b600080fd5b600080fd5b600080fd5b600080fd5b6000601f19601f8301169050919050565b7f4e487b7100000000000000000000000000000000000000000000000000000000600052604160045260246000fd5b6100ef826100a6565b810181811067ffffffffffffffff8211171561010e5761010d6100b7565b5b80604052505050565b6000610121610088565b905061012d82826100e6565b919050565b600067ffffffffffffffff82111561014d5761014c6100b7565b5b610156826100a6565b9050602081019050919050565b60005b83811015610181578082015181840152602081019050610166565b60008484015250505050565b60006101a061019b84610132565b610117565b9050828152602081018484840111156101bc576101bb6100a1565b5b6101c7848285610163565b509392505050565b600082601f8301126101e4576101e361009c565b5b81516101f484826020860161018d565b91505092915050565b60006020828403121561021357610212610092565b5b600082015167ffffffffffffffff81111561023157610230610097565b5b61023d848285016101cf565b91505092915050565b600081519050919050565b7f4e487b7100000000000000000000000000000000000000000000000000000000600052602260045260246000fd5b6000600282049050600182168061029857607f821691505b6020821081036102ab576102aa610251565b5b50919050565b60008190508160005260206000209050919050565b60006020601f8301049050919050565b600082821b905092915050565b6000600883026103137fffffffffffffffffffffffffffffffffffffffffffffffffffffffffffffffff826102d6565b61031d86836102d6565b95508019841693508086168417925050509392505050565b6000819050919050565b6000819050919050565b600061036461035f61035a84610335565b61033f565b610335565b9050919050565b6000819050919050565b61037e83610349565b61039261038a8261036b565b8484546102e3565b825550505050565b600090565b6103a761039a565b6103b2818484610375565b505050565b5b818110156103d6576103cb60008261039f565b6001810190506103b8565b5050565b601f82111561041b576103ec816102b1565b6103f5846102c6565b81016020851015610404578190505b610418610410856102c6565b8301826103b7565b50505b505050565b600082821c905092915050565b600061043e60001984600802610420565b1980831691505092915050565b6000610457838361042d565b9150826002028217905092915050565b61047082610246565b67ffffffffffffffff811115610489576104886100b7565b5b6104938254610280565b61049e8282856103da565b600060209050601f8311600181146104d157600084156104bf578287015190505b6104c9858261044b565b865550610531565b601f1984166104df866102b1565b60005b82811015610507578489015182556001820191506020850194506020810190506104e2565b868310156105245784890151610520601f89168261042d565b8355505b6001600288020188555050505b505050505050565b610983806105486000396000f3fe608060405234801561001057600080fd5b50600436106100625760003560e01c806306fdde031461006757806312065fe01461008557806317d7de7c146100a3578063893d20e8146100c15780638da5cb5b146100df578063c47f0027146100fd575b600080fd5b61006f610119565b60405161007c91906103bf565b60405180910390f35b61008d6101a7565b60405161009a91906103fa565b60405180910390f35b6100ab6101af565b6040516100b891906103bf565b60405180910390f35b6100c9610241565b6040516100d69190610456565b60405180910390f35b6100e761026a565b6040516100f49190610456565b60405180910390f35b610117600480360381019061011291906105ba565b61028e565b005b6001805461012690610632565b80601f016020809104026020016040519081016040528092919081815260200182805461015290610632565b801561019f5780601f106101745761010080835404028352916020019161019f565b820191906000526020600020905b81548152906001019060200180831161018257829003601f168201915b505050505081565b600047905090565b6060600180546101be90610632565b80601f01602080910402602001604051908101604052809291908181526020018280546101ea90610632565b80156102375780601f1061020c57610100808354040283529160200191610237565b820191906000526020600020905b81548152906001019060200180831161021a57829003601f168201915b5050505050905090565b60008060009054906101000a900473ffffffffffffffffffffffffffffffffffffffff16905090565b60008054906101000a900473ffffffffffffffffffffffffffffffffffffffff1681565b60008054906101000a900473ffffffffffffffffffffffffffffffffffffffff1673ffffffffffffffffffffffffffffffffffffffff163373ffffffffffffffffffffffffffffffffffffffff161461031c576040517f08c379a0000000000000000000000000000000000000000000000000000000008152600401610313906106af565b60405180910390fd5b806001908161032b919061087b565b5050565b600081519050919050565b600082825260208201905092915050565b60005b8381101561036957808201518184015260208101905061034e565b60008484015250505050565b6000601f19601f8301169050919050565b60006103918261032f565b61039b818561033a565b93506103ab81856020860161034b565b6103b481610375565b840191505092915050565b600060208201905081810360008301526103d98184610386565b905092915050565b6000819050919050565b6103f4816103e1565b82525050565b600060208201905061040f60008301846103eb565b92915050565b600073ffffffffffffffffffffffffffffffffffffffff82169050919050565b600061044082610415565b9050919050565b61045081610435565b82525050565b600060208201905061046b6000830184610447565b92915050565b6000604051905090565b600080fd5b600080fd5b600080fd5b600080fd5b7f4e487b7100000000000000000000000000000000000000000000000000000000600052604160045260246000fd5b6104c782610375565b810181811067ffffffffffffffff821117156104e6576104e561048f565b5b80604052505050565b60006104f9610471565b905061050582826104be565b919050565b600067ffffffffffffffff8211156105255761052461048f565b5b61052e82610375565b9050602081019050919050565b82818337600083830152505050565b600061055d6105588461050a565b6104ef565b9050828152602081018484840111156105795761057861048a565b5b61058484828561053b565b509392505050565b600082601f8301126105a1576105a0610485565b5b81356105b184826020860161054a565b91505092915050565b6000602082840312156105d0576105cf61047b565b5b600082013567ffffffffffffffff8111156105ee576105ed610480565b5b6105fa8482850161058c565b91505092915050565b7f4e487b7100000000000000000000000000000000000000000000000000000000600052602260045260246000fd5b6000600282049050600182168061064a57607f821691505b60208210810361065d5761065c610603565b5b50919050565b7f4f6e6c79206f776e657200000000000000000000000000000000000000000000600082015250565b6000610699600a8361033a565b91506106a482610663565b602082019050919050565b600060208201905081810360008301526106c88161068c565b9050919050565b60008190508160005260206000209050919050565b60006020601f8301049050919050565b600082821b905092915050565b6000600883026107317fffffffffffffffffffffffffffffffffffffffffffffffffffffffffffffffff826106f4565b61073b86836106f4565b95508019841693508086168417925050509392505050565b6000819050919050565b600061077861077361076e846103e1565b610753565b6103e1565b9050919050565b6000819050919050565b6107928361075d565b6107a661079e8261077f565b848454610701565b825550505050565b600090565b6107bb6107ae565b6107c6818484610789565b505050565b5b818110156107ea576107df6000826107b3565b6001810190506107cc565b5050565b601f82111561082f57610800816106cf565b610809846106e4565b81016020851015610818578190505b61082c610824856106e4565b8301826107cb565b50505b505050565b600082821c905092915050565b600061085260001984600802610834565b1980831691505092915050565b600061086b8383610841565b9150826002028217905092915050565b6108848261032f565b67ffffffffffffffff81111561089d5761089c61048f565b5b6108a78254610632565b6108b28282856107ee565b600060209050601f8311600181146108e557600084156108d3578287015190505b6108dd858261085f565b865550610945565b601f1984166108f3866106cf565b60005b8281101561091b578489015182556001820191506020850194506020810190506108f6565b868310156109385784890151610934601f891682610841565b8355505b6001600288020188555050505b50505050505056fea264697066735822122055c4bc3e2dec177a2ee3be1f9de0dd5a3b32a3b3cf51914cf20047aeb10154e564736f6c634300081c0033",
  "linkReferences": {},
  "deployedLinkReferences": {}
}